:020000040800F2
:10000000E005002001010008431A00080518000857
:10001000411A0008750600086B1D0008000000006A
:10002000000000000000000000000000671A000847
:100030007706000800000000651A0008691A000829
:100040001B0100081B0100081B0100081B01000820
:100050001B0100081B0100081B0100081B01000810
:100060001B0100081B0100081B0100081B01000800
:100070001B0100081B0100081B0100081B010008F0
:100080001B0100081B010008AD0500081B0100084A
:100090001B0100081B0100081B0100081B010008D0
:1000A0001B0100081B0100081B0100081B010008C0
:1000B0001B0100081B0100081B0100081B010008B0
:1000C0001B0100081B0100081B0100081B010008A0
:1000D0001B0100081B0100081B0100081B01000890
:1000E0001B0100081B0100081B010008DFF80CD0F1
:1000F00000F04AFA004800471D200008E0050020F3
:100100000648804706480047FEE7FEE7FEE7FEE7B1
:10011000FEE7FEE7FEE7FEE7FEE7FEE7F11A00086E
:10012000ED0000082DE9F0410D46002862DDB0FA2F
:1001300080F14C1E14F0010F0EBFA040611E8840DC
:100140004610074600F0A4F96FF01E0100F094F984
:100150002B49A1EB60001E2100F08EF900F0A1F9FF
:1001600080FB0012C90F41EA420181FB0612C90F50
:1001700041EA4201C1F1405180FB0101C00F40EA58
:100180004100800080FB0021D20F42EA410181FB47
:100190000612C90F41EA4201C1F1405180FB010141
:1001A000C00F40EA4100800080FB0012C90F41EA05
:1001B000420181FB0621D20F42EA4101C1F14051C7
:1001C00080FB0101C00F40EA4100810087FB011064
:1001D000C90F41EA4000400014F0010F0EBF04EBCC
:1001E000D471611E01EBD1714910084128600020D3
:1001F000BDE8F08100200860401EBDE8F0810000ED
:10020000DF59375F2DE9F05F0546002092469B4697
:1002100088460646814640241BE02846414647461C
:10022000224600F051F853465A46C01A914110D365
:1002300011461846224600F061F92D1A67EB0108B5
:100240004F4622460120002100F058F917EB000923
:100250004E41201EA4F10104DFDC484631462A4607
:100260004346BDE8F09F2DE9F0410024061B2546DA
:1002700071F1000605DA01240027D0EB070067EBD7
:100280000101161E73F1000605DA0027D2EB070202
:10029000012567EB0303FFF7B5FF86460E461746B9
:1002A0009C46AC4204D00025D0EB050E65EB010660
:1002B00024B10020D2EB000760EB030C70463146FE
:1002C0003A466346BDE8F081202A04DB203A21FA51
:1002D00002F00021704721FA02F3D040C2F120025F
:1002E0009140084319467047F0B480EA0102D40FE8
:1002F0004200B2EB410F02D20246084611464A00C4
:1003000042D0C30DDDB2C1F3C752AD1A202D35DA8C
:10031000C1F3160141F4000204B15242C5F12006B6
:1003200002FA06F12A411044B3EBD05F23D0C4B1E6
:10033000012DA0EBC35009DCF0BC4FF0004202EAF3
:10034000C352DBB200F5000000F0F0B8400000F14D
:10035000807000EBC350A0F1807040EAD17049007A
:1003600009E0490841EAC071A0EBC35000F5000064
:10037000400800EBC350F0BC00F0CFB8614201224E
:1003800002EB4101001BF6E7F0BC704781F0004131
:10039000AAE780F00040A7E780EA010210B502F06A
:1003A0000043400022D04A001FD0010E01EB126131
:1003B000C0F35600C2F3560240F4000042F40002BB
:1003C000A0FB022000047F39140400D0401C50EA36
:1003D000124001D44000491EC2B20C0604EBD010FA
:1003E000401C4008802A02D003E0002010BD20F00D
:1003F0000100002900DA0020184310BD30B480EA63
:10040000010202F0004530F0004221F0004013D01C
:1004100090B1C30DD40DC2F31601C0F31600E41A57
:1004200041F4000140F400027D34914201D3641C88
:1004300000E04900002C02DA30BC002070474FF485
:1004400000000023914201D3891A034340084FEA78
:100450004101F7D151B1914202D14FF0004105E085
:1004600002D24FF0010101E06FF0010103EBC45033
:10047000284430BC00F051B8420005D0C0F3C75248
:100480005242914201DC0020704700EBC15070479E
:10049000C10F80EAE0700844CA079623002100F0EB
:1004A00045B800F0004220F00040C10DC0F3160036
:1004B00040F400007F2901DA00207047962903DC10
:1004C000C1F19601C84001E096398840002AF4D075
:1004D0004042704720F00040C10DC0F3160040F4C8
:1004E00000007F2901DA00207047962903DCC1F162
:1004F0009601C8407047963988407047202A04DB2F
:10050000203A00FA02F1002070479140C2F1200326
:1005100020FA03F31943904070470029A8BF7047A1
:10052000401C490008BF20F00100704710B4B0FA29
:1005300080FC00FA0CF050EA010404BF10BC7047C4
:1005400049B1CCF1200421FA04F411FA0CF118BFDE
:10055000012121430843A3EB0C01CB1D4FEA0061AD
:100560004FEA102042BF002010BC704700EBC35080
:1005700010440029A4BF10BC7047401C490008BFAC
:1005800020F0010010BC7047064C074D06E0E06803
:1005900040F0010394E8070098471034AC42F6D3CA
:1005A000FFF7A8FDE027000800280008014800F038
:1005B00016B90000F000002070B50446006881689C
:1005C000C943C9071CD1816821F00101816000F095
:1005D0008DFB05460FE000BF00F088FB401B0228A2
:1005E00009D9A06A40F01000A062E06A40F0010062
:1005F000E062012070BD20688068C043C007EBD076
:10060000002070BDF8B50026044600960068816899
:10061000C943C90728D0816841F0010181601348AE
:1006200013490068B0FBF1F000E0401E0090002884
:10063000FBD100F05BFB054611E000BF00F056FB6C
:10064000401B02280BD9A06A40F01000A062E06AAB
:1006500040F00100E06284F824600120F8BD2068C9
:100660008068C043C007E9D10020F8BD6C000020BD
:1006700040420F00FEE7704770470000F8B50024C5
:10068000009490F824202546012A12D0012280F8F7
:1006900024204A681F23072A0DD20668776B521E52
:1006A00002EB820293409F430B6893401F437763A2
:1006B00019E00220F8BD06680D2A0AD2376BD21F56
:1006C00002EB820293409F430B6893401F433763C2
:1006D00009E0F76A0D3A02EB820293409F430B68F0
:1006E00093401F43F7620A68072306680A2A0AD361
:1006F000F7680A3A02EB420293409F438B689340AB
:100700001F43F76008E0376902EB420293409F43C2
:100710008B6893401F4337610A68102A01D0112A61
:1007200020D1124B02689A4217D193681B0219D448
:10073000936843F4000393600968102912D10C49AF
:100740000C4A0968B1FBF2F101EB8101490000E0BC
:10075000491E00910029FBD104E0816A41F020018B
:100760008162012480F824502046F8BD0024014015
:100770006C00002040420F0010B500F02DF8134926
:10078000A0F50060C880B1F90600002264280DDAE7
:10079000B1F9060010F1640F08DD4889B0F5487F13
:1007A00002D0401C488102E0CA8000E04A8101205A
:1007B0000870B1F90800064A10604A78C86C05490B
:1007C000BDE810400844C11701F0BEBF0000002082
:1007D00034080040005125020068C06C704710B515
:1007E000044600684168890626D50168890723D533
:1007F000A16AC90603D4A16A41F40071A1628168AB
:10080000C1F34241072910D1E16871B9416821F073
:1008100020014160A06A20F48070A062A06AC00438
:1008200003D4A06A40F00100A0622046FFF7A4FFB5
:1008300021686FF0120008602068416809062ED513
:10084000016849072BD5A16AC90603D4A16A41F4FE
:100850000051A1628168C1F30231072909D04168C2
:10086000490515D48168C1F34241072910D1E168D7
:1008700071B9416821F080014160A06A20F4805084
:10088000A062A06AC00503D4A06A40F00100A06283
:100890002046FFF7F1FE21686FF00C000860206829
:1008A000416849060DD50068C0070AD0A06A40F427
:1008B0008030A062204600F093F821686FF00100BC
:1008C000086010BD2DE9F0414FF0000704003D46DF
:1008D0007ED0A06A002628B9E66284F8246020460B
:1008E00000F080F82046FFF767FEA16AC90600D431
:1008F00020B1A06A40F01000A06269E0A16A21F472
:10090000885141F00201A1626268E169E3680A432B
:1009100047EA43010A43A1684FF48077B94209D0FE
:10092000012907D05FF00001D4F814C0BCF1010F19
:1009300002D00AE03946F7E7F3B1A36A43F0200397
:10094000A362E36A43F00103E3622368D3F804C0BF
:100950002CF4694C4CEA010CC3F804C021688B6884
:10096000DFF870C003EA0C0313438B60A168B9423F
:100970000BD0012909D00CE0DFF85CC0A3690CEBB7
:1009800043330B4343F40061DFE7218A0D05A5F5EE
:1009900080152168CB6A23F470032B43CB62216856
:1009A00089680E4B1940914208D1E662A16A21F094
:1009B000020141F00101A162BDE8F081A06A20F0CE
:1009C000020040F01000A062E06A40F00100E06226
:1009D0000120F1E7FDF7E1FF00E0FFFFFE0E1FFF42
:1009E0007047000000B500680F4985B0884218D1F3
:1009F0000E48816941F4007181618069694600F4A3
:100A0000007004900120009003200190084800F03D
:100A100089F800221146122000F0FCF9122000F0A3
:100A2000EDF905B000BD00000024014000100240B7
:100A30000008014070B5044690F8240001280DD04C
:100A4000012084F824002046FFF7DCFD02004FF06F
:100A5000000005D084F82400104670BD022070BD4F
:100A6000A16A40F60163994341F48071A162224D6D
:100A700023682249AB4218D10E6816F4702F14D0A7
:100A8000A66A46F48016A6620E68760505D5A66AA3
:100A900026F4005646F48056A662A66AF6040AD5E5
:100AA000E66A26F00606E66206E0A66A26F48016E6
:100AB000A6625E68E9E7E06284F824006FF0020055
:100AC00018602068436843F020034360206883680F
:100AD000C3F34243072B05D1A84208D1096811F49A
:100AE000702F04D0816841F480118160B4E781687F
:100AF00041F4A001F9E7000000280140042401406E
:100B000070B5044600F0F2F80546601C02D00448B7
:100B10000078044400F0EAF8401BA042FAD370BD0C
:100B2000600000202DE9F84FDFF890A100220AF1C3
:100B3000040B144601274FF00F090BF1040E00BF00
:100B40000B6807FA04F52B40AB4274D1DFF870C193
:100B50004E68A6EB0C0866452BD00DDC032E34D076
:100B600005DC36B3012E19D0022E2FD11BE0112E39
:100B700016D0122E2AD119E0B8F5881F19D006DC3C
:100B8000B8F5803F15D0B8F5801F1FD111E0B8F53A
:100B9000001F0ED0B8F5041F18D10AE0CA6815E08E
:100BA000CA68121D12E0CA6808320FE0CA680C3227
:100BB0000CE08A682AB1012A4FF0080203D045618F
:100BC00004E0042202E0056100E00022FF2B01D8CE
:100BD000064601E000F104064FEA840501D9A5F1BB
:100BE0002005D6F800C009FA05F82CEA080C02FA2C
:100BF00005F54CEA050CC6F800C04D68ED0057D568
:100C0000304DAE6946F00106AE61AD6924F00306D1
:100C100005F0010500952C4D06EB050CDCF808509D
:100C2000A6074FEA167809FA08F6B543274EB042F0
:100C300002D1002610E03BE0254EB04201D1012652
:100C40000AE0244EB04201D1022605E0224EB04215
:100C500001D1032600E0042606FA08F62E43CCF85C
:100C600008604D68DAF80060ED03554601D51E4373
:100C700000E09E432E604D68DBF80060AD035D46EA
:100C800001D51E4300E09E432E604D68DEF80060F3
:100C9000ED02754601D51E4300E09E432E604D686F
:100CA000AD020E4D2E6801D51E4300E09E432E601E
:100CB000641C102CFFF444AFBDE8F88F0004014021
:100CC0000000111000100240000001400008014027
:100CD000000C014000100140001401400C040140D0
:100CE0000AB1016170470904FBE700000148806810
:100CF00070470000600000200248816802781144BB
:100D00008160704760000020074810B5016841F01D
:100D100010010160032000F09DF8002000F006F8AB
:100D200000F024F8002010BD0020024070B50D4DE9
:100D300004464FF47A712878B1FBF0F00A4909684B
:100D4000B1FBF0F000F087FB48B9102C07D200226D
:100D50002146501E00F05EF800206C6070BD01203E
:100D600070BD0000600000206C000020214808B524
:100D7000816941F001018161816901F00101009106
:100D8000C16941F08051C161C06900F0805000909C
:100D9000032000F05FF8002211466FF00B0000F016
:100DA00039F8002211466FF00A0000F033F80022F3
:100DB00011466FF0090000F02DF800221146501F77
:100DC00000F028F800221146101F00F023F800223E
:100DD0001146901E00F01EF800221146501E00F031
:100DE00019F80548416821F0E06141F080614160F7
:100DF00008BD0000001002400000014000F01F028A
:100E0000012191404009800000F1E020C0F800116C
:100E100070470000F0B40E4B1B680C46C3F302236E
:100E2000C3F10705042D00D90425191D072901D296
:100E3000002300E0DB1E012606FA05F1491E2140D1
:100E400099409E40761E16403143F0BC00F0FABD3A
:100E50000CED00E0064900F0070208684FF6FF03BA
:100E6000184040EA0220034A10430860704700001F
:100E70000CED00E00000FA052DE9F8430546007886
:100E8000354CC00754D0E0690026C00008D4E069A2
:100E900040F08050E061E069012600F08050009051
:100EA0002E480168C90512D40168804641F480715A
:100EB0000160FFF71BFF074605E000BFFFF716FFC5
:100EC000C01B642823D8D8F80000C005F6D5206AD6
:100ED00010F4407021D0A98801F4407181421CD0E7
:100EE000206A1F49012220F440700A6000220A6033
:100EF0002062C00711D0FFF7F9FE074641F288389B
:100F000008E000BFFFF7F2FEC11B414502D90320F4
:100F1000BDE8F883206A8007F4D5206A696820F468
:100F20004070084320621EB1E06920F08050E0610B
:100F30002878800705D56068A96820F440400843F8
:100F400060602878C00605D56068E96820F48000F4
:100F5000084360600020DBE70010024000700040A2
:100F6000400442422DE9F047DFF83C8105460E4639
:100F7000D8F8000000F00700B0420CD2D8F80010FA
:100F800021F007013143C8F80010D8F8000000F044
:100F90000700B04263D12878444C800705D56068CB
:100FA000A96820F0F000084360602878C00745D0A9
:100FB0006868012816D02168022816D08907002900
:100FC0004DDA616821F0030101436160FFF78EFE95
:100FD0006968074641F2883001290FD0022981460D
:100FE00019D027E021688903E9E78901E7E700BF15
:100FF000FFF77CFEC11B494501D918E081466068B6
:10100000C0F381000128F3D118E000BFFFF76EFEA6
:10101000C11B49450BD86068C0F381000228F5D197
:101020000CE000BFFFF762FEC11B494502D9032057
:10103000BDE8F087606810F00C0FF3D1D8F800100D
:10104000404601F00701B1420BD9016821F00701C8
:1010500031430160006800F00700B04201D0012078
:10106000E6E72878400705D56068E96820F4E06085
:10107000084360602878000706D56068296920F475
:10108000605040EAC100606000F01CF86168084AE6
:10109000C1F30311515CC840064908600020FFF706
:1010A00045FE0020C4E7000000200240001002407E
:1010B000D02700086C00002001480068704700003D
:1010C0006C00002013A185B00FC98DE80F0015A09A
:1010D000154A00680490516801F00C00042804D0FF
:1010E000082804D0114805B070471148FBE7C1F348
:1010F0008343C9031DF8030009D5516804AAC1F34D
:101100004041515C0A4A5043B0FBF1F0EBE709491A
:101110004843E8E702030405060708090A0B0C0D1B
:101120000E0F1010010200000010024000127A00A1
:10113000001BB70000093D002DE9F84F0446007878
:10114000B94DC00748D06868C0F38100012807D0B6
:101150006868C0F38100022809D16868C00306D519
:101160002868800338D5606800286FD034E0606854
:10117000B0F5803F0BD010B1B0F5A02F11D028688A
:1011800020F480302860286820F4802002E028685D
:1011900040F480302860606888B1FFF7A7FD0646FC
:1011A00009E0286840F480202860F0E7FFF79EFD02
:1011B000801B642875D828688003F7D50CE0FFF7FA
:1011C00095FD064605E000BFFFF790FD801B6428F3
:1011D000F0D828688003F7D42078944E80074FF029
:1011E00001094FF000083BD5686810F00C0F07D0DC
:1011F0006868C0F38100022809D16868C00306D47A
:101200002868800714D5206901281FD110E02069C3
:10121000B0B1C6F80090FFF769FD074605E000BFD2
:10122000FFF764FDC01B0228C4D828688007F7D5E3
:101230002868616920F0F80040EAC10028600FE0EA
:10124000C6F80080FFF752FD074606E0E9E000BF60
:10125000FFF74CFDC01B022823D828688007F7D46D
:10126000207800072CD57248A169D9B1C0F8009048
:10127000FFF73CFD074604E0FFF738FDC01B0228DE
:101280000FD8686A8007F7D56A484FF4FA510068AA
:10129000B0FBF1F0009000BF0098411E0091FAD21F
:1012A0000EE080E0C0F80080FFF720FD074604E074
:1012B000FFF71CFDC01B022875D8686A8007F7D4A9
:1012C0002078400760D5E8690027C00008D4E869A5
:1012D00040F08050E861E869012700F080500090FC
:1012E00055480168C90513D40168834641F48071EB
:1012F0000160FFF7FBFC824606E000BFFFF7F6FC4B
:10130000A0EB0A0064284ED8DBF80000C005F5D534
:10131000E06801280AD008B1052813D0286A20F017
:1013200001002862286A20F0040002E0286A40F0E8
:1013300001002862E06841F2883B98B1FFF7D6FCD3
:1013400082460BE0286A40F004002862EEE700BF06
:10135000FFF7CCFCA0EB0A0159455AD8286A800750
:10136000F6D50CE0FFF7C2FC824605E0FFF7BEFCB5
:10137000A0EB0A0159454CD8286A8007F6D41FB162
:10138000E86920F08050E861E06988B36968C1F3DA
:101390008101022945D00228C6F8608004D0FFF7F9
:1013A000A5FC044638E034E0FFF7A0FC074604E063
:1013B000FFF79CFCC01B02282BD828688001F7D4BB
:1013C000206AB0F5803F05D16868A16820F400303C
:1013D00008436860D4E908010843696821F474117E
:1013E00008436860C6F86090FFF780FC044606E09A
:1013F00015E000BFFFF77AFC001B022809D8286817
:101400008001F7D50BE000BFFFF770FC001B02283E
:1014100002D90320BDE8F88F28688001F4D40020A9
:10142000F8E70120F6E70000001002400000424209
:10143000800442426C000020007000404FF0E02128
:101440000428086903D020F004000861704740F0C8
:101450000400FAE7704710B5401EB0F1807F01D359
:10146000012010BD4FF0E02460610F21601700F0F3
:10147000E9FA0020A06107202061002010BD10B50E
:10148000FFF7E8FF10BD30B590F83C20012A20D0CE
:10149000012280F83C20022380F83D3003685C681C
:1014A00024F070045C6003685C680D682C435C6029
:1014B00003689C6824F080049C6003689C68496809
:1014C0000C439C6080F83D20002180F83C100846C9
:1014D00030BD022030BD10B5040003D094F83D00AB
:1014E00010B107E0012010BD002084F83C00204628
:1014F00000F00CF8022084F83D00211D206800F067
:101500001BFB012084F83D00002010BD08B50168D8
:101510001148B1F1804F0BD0104A914210D1C169EE
:1015200041F00201C161C06900F00200009008BDF5
:10153000C16941F00101C161C06900F00100F5E736
:10154000074A9142F3D1C16941F00401C161C06908
:1015500000F00400EAE70000001002400004004030
:1015600000080040022180F83D1001680A6842F03E
:1015700001020A60012180F83D100020704770B51B
:10158000044690F83C00012817D0012584F83C500F
:10159000022084F83D002068826822F0770222F45D
:1015A0007F4282600868502837D00DDC202859D04F
:1015B00005DC88B3102841D151E0022070BD3028ED
:1015C00053D040283AD13FE060282ED070280BD06D
:1015D000B0F5805F03D0B0F5005F2FD110E0206838
:1015E000816821F0070115E0CB68D1E9012120686D
:1015F00000F0E3FA2168886840F0770088601DE019
:10160000CB68D1E90121206800F0D7FA2068816811
:1016100041F48041816011E01EE0CA684968206899
:1016200000F080FB5021206806E0CA684968206805
:1016300000F089FB6021206800F0C9FA84F83D5071
:10164000002084F83C0070BDCA684968206800F03A
:1016500069FB40212068EFE700212068ECE71021BA
:101660002068E9E720212068E6E730212068E3E7E9
:101670001FB501680220B1F1804F0BD00F4A914293
:1016800007D14021CDE90010039069460C48FFF7CF
:1016900049FA1FBD4FF40041CDE90010039069469F
:1016A0000848FFF73FFA0848416821F4407141F0CB
:1016B000E06141F4807141601FBD000000080040FE
:1016C000000C0140000801400000014070B50446D4
:1016D00090F83C000D4601280DD0012684F83C60AE
:1016E000022084F83D0042B1042A18D0082A2AD0EA
:1016F0000C2A4DD139E0022070BD206800F070FA4C
:101700002068816941F0080181612068816921F0C8
:1017100004018161206881692A69114311E0206810
:1017200000F086FA2068816941F4006181612068D7
:10173000816921F480618161206881692A6941EAB7
:101740000221816124E0206800F09EFA2068C169CE
:1017500041F00801C1612068C16921F00401C16143
:101760002068C1692A69114311E0206800F0B8FAC5
:101770002068C16941F40061C1612068C16921F438
:101780008061C1612068C1692A6941EA0221C161A1
:1017900084F83D60002084F83C0070BD10B5040062
:1017A00003D094F83D0010B107E0012010BD0020E7
:1017B00084F83C00204600F00CF8022084F83D003C
:1017C000211D206800F0B8F9012084F83D000020B8
:1017D00010BD704710B504460068012200F0E2F920
:1017E00007492068884203D1416C41F400414164BB
:1017F0002068016841F001010160002010BD000077
:10180000002C0140FEE700003EB50F4800240D49C2
:101810008460C46044610160012505614FF40021CA
:101820004460C161FFF74EF800B1FEE7CDE9004525
:10183000694605480294FEF721FF002800D0FEE724
:101840003EBD000000240140F00000202DE9F041E1
:10185000274886B0816941F020018161816901F0EA
:1018600020010491816941F010018161816901F0D9
:1018700010010491816941F004018161816901F0E5
:1018800004010491816941F0080181618069194F67
:1018900000F0080040F2FF34049000222146384650
:1018A000FFF71EFADFF8508000224FF4087140461F
:1018B000FFF716FA009401AA01240025032682E806
:1018C000700069463846FFF72DF920208DE8310079
:1018D0000220039069464046FFF724F960028DE834
:1018E000710069464046FFF71DF906B0BDE8F0817A
:1018F00000100240001001400008014010B51C48D3
:101900008EB04FF080410024C0E9001441F6FE7112
:10191000C0E9024104618461FFF7DDFD00B1FEE72B
:101920004FF48050079007A91148FFF728FE00B137
:10193000FEE70F48FFF732FF00B1FEE70B940BA95B
:101940000B480C94FFF79FFD00B1FEE76020CDE946
:10195000000402940022694605480494FFF7B6FE8D
:1019600000B1FEE70248FFF783FE0EB010BD000095
:101970002001002010B5134886B011490024C0E9A9
:10198000001441F6FE71C0E9024104618461FFF771
:10199000A2FD00B1FEE74FF480500090694609486F
:1019A000FFF7EDFD00B1FEE72020CDE9040404A916
:1019B0000448FFF768FD002800D0FEE706B010BD20
:1019C000000400406001002010B51C488EB01A4988
:1019D0000024C0E9001440F6FF71C0E9024104612F
:1019E0008461FFF778FD00B1FEE74FF48050079067
:1019F00007A91248FFF7C3FD00B1FEE70F48FFF744
:101A0000CDFE00B1FEE70B940BA90C480C94FFF738
:101A10003AFD00B1FEE76020CDE900040294002207
:101A2000694606480494FFF751FE00B1FEE70348FB
:101A3000FFF71EFE0EB010BD00080040A001002000
:101A4000FEE770470907090E002806DA00F00F00CC
:101A500000F1E02080F8141D704700F1E02080F8CC
:101A6000001470477047704710B5FFF745F9BDE89F
:101A70001040FFF704BD30B593B001210804CDE953
:101A800000100025029502240491CDE907400001D1
:101A900009906846FFF750FB00B1FEE70AA90F2046
:101AA00081E831004FF48060CDE90D0502210AA8DC
:101AB000FFF758FA00B1FEE74FF4004011900F9481
:101AC0000FA8FFF7D9F900B1FEE7FFF7F5FA4FF4D9
:101AD0007A71B0FBF1F0FFF7BEFC0420FFF7AEFC1B
:101AE00000221146501EFFF795F913B030BD0000DB
:101AF0000D48016841F00101016041680B4A114045
:101B0000416001680A4A11400160016821F48021A6
:101B10000160416821F4FE0141604FF41F018160C2
:101B20000449C00308607047001002400000FFF83D
:101B3000FFFFF6FE08ED00E0F0B50268164B174C0B
:101B4000174D4FF08047984205D0B84203D0A042CD
:101B500001D0A84203D122F070064A68324398426D
:101B600005D0B84203D0A04201D0A84203D122F44C
:101B70004074CA68224322F080044A69224302600A
:101B80008A68C2620A688262984201D10969016367
:101B900001214161F0BD0000002C01400004004023
:101BA0000008004010B50123046A8B409C43046286
:101BB000036A8A401343036210BD10B5846842EA89
:101BC000032224F47F440A432243826010BD8268CA
:101BD00022F070020A4342F0070181607047000062
:101BE00030B5026A22F001020262026A4368846927
:101BF00024F073050C682C4322F002058A682A43FE
:101C00000A4DA8420BD122F00805CA6823F440739C
:101C10002A434D6922F004021D438B692B43436024
:101C2000846149684163026230BD0000002C0140BC
:101C300030B5026A22F010020262026A43688469C7
:101C40000D6824F4E64444EA05248D6822F020025D
:101C500042EA05120B4DA8420ED1CD6822F0800257
:101C600042EA05124D6923F4406343EA85038D6916
:101C700022F0400243EA850343608461496881633E
:101C8000026230BD002C014030B5026A22F480723D
:101C90000262036A4268C46923F4007324F0730586
:101CA0000C682C438D6843EA05230C4DA8420ED1E5
:101CB000CD6823F4006343EA05234D6922F44052C2
:101CC00042EA05128D6923F4806342EA05124260FC
:101CD000C4614968C163036230BD0000002C01404B
:101CE00030B5026A22F480520262046A4268C36913
:101CF0000D6823F4E64343EA05238D6824F4005479
:101D000044EA0534064DA84204D14D6922F48042CC
:101D100042EA85124260C36149680164046230BDD1
:101D2000002C014010B5036A046A24F00104046227
:101D3000846924F0F00444EA021423F00A020A43FE
:101D40008461026210BD10B5036A23F010030362C0
:101D50008369046A23F4704343EA023224F0A00347
:101D600043EA01118261016210BDFEE741000802F1
:101D700018BF04200A0E18BF40F001004FF07F4248
:101D800032EA010108BF40F00200012808BF052027
:101D90007047FEF7A9BA6FF05E010807FEF76CBB4B
:101DA00002E008C8121F08C1002AFAD17047704724
:101DB000002001E001C1121F002AFBD17047000082
:101DC0002DE9F0474FF0684202EB40030C46054610
:101DD000B3F1654F3CBF02EB4102B2F1654F7CD2DB
:101DE000C0F3C753C1F3C7529A1A1B2A06DD10F07D
:101DF000004F14BF76487748BDE8F08712F11A0FFC
:101E000017DA11F0004F06D010F0004F0CBF7248E7
:101E10007248BDE8F08721462846FEF7EFFA0446EF
:101E2000FFF7A4FF042808BFFFF7B5FF2046BDE871
:101E3000F0874200B2EB410F25D910F0004F19BFD7
:101E4000674F684E684F694E224685F0004415463C
:101E50000A4680F0004110460A1A5200B2F1807F13
:101E600040D248406249DFF88CA110F0004F18D0F2
:101E70004FF03F483846FEF789FA0746514630464C
:101E8000FEF784FA17E011F0004F04BF0026374632
:101E9000E2D010F0004F19BF574F584E584F594ECF
:101EA000DAE74FF07C583846FEF71EFA07465146EF
:101EB0003046FEF719FA064641462846FEF76CFA08
:101EC0002146FEF711FA824621464046FEF764FAA3
:101ED0002946FEF75EFA514600E037E0FEF78EFA3B
:101EE000044604E021462846FEF788FA04460146E7
:101EF000FEF752FA80464449FEF74EFA4349FEF790
:101F0000F3F94146FEF748FA4149FEF7EDF941463B
:101F1000FEF742FA3F49FEF7E7F94146FEF73CFA81
:101F20003D49FEF7E1F9054641462046FEF734FA01
:101F30002946FEF731FA3146FEF7D6F92146FEF77B
:101F4000D3F93946BDE8F047FEF7CEB94FF07F42EE
:101F5000B2EB400F28BFB2EB410F03D2BDE8F04710
:101F6000FFF717BF40EA01035B0008BF44F0FF41E1
:101F70000AD0B2EB400F08BFB2EB410F06D125F0FB
:101F8000804024F0804105460C4629E7B2EB400F23
:101F900012BF5FEA410245F0FF4004F000413FF408
:101FA0001FAF4A0092EA40033FF51AAF002AACBFC8
:101FB0004FF09F464FF03E563146FEF7EDF905468D
:101FC00031462046FEF7E8F904462846214607E751
:101FD000DB0FC9BFDB0FC93FDB0F4940DB0F49C037
:101FE0000000C9BF22AAFDB90000C93F22AAFD39DD
:101FF0000060ED3EC30ACE37000049C022AA7DBA78
:102000000000494022AA7D3A2DAD65BD8FB8D53D6F
:102010000FB511BE61C84C3EA8AAAABE0525FEF7A1
:1020200073FEFFF728FDFFF711FCFFF7A3FCFFF796
:10203000CBFCFFF7E9FBFFF761FC01225102FE48F0
:10204000FEF74EFE0120FEF75BFD00224FF400710B
:10205000F948FEF745FEF948FEF7ECFCF74870300A
:10206000FFF780FAF5480021B030FFF7B3FBF348E3
:1020700000213030FFF7AEFB4FF0000BF04C3AE19F
:10208000012D02D0032D7DD128E020780128FCD13C
:10209000E94D012220212846FEF722FEE949E069A8
:1020A000FEF77AF90646B4F90600FEF7F1F9314673
:1020B000FEF71AF9A061E169A069FEF767F9FEF77A
:1020C000F0F900F500602081A069E06184F800B0BB
:1020D000002220212846FEF703FED6E720780128BB
:1020E000FCD101222021D448FEF7FAFDD549606ACF
:1020F000FEF752F90546B4F90600FEF7C9F929467C
:10210000FEF7F2F82062616A206AFEF73FF9FEF7F7
:10211000C8F9216A61620305A362E078C749401CDF
:1021200000F00F028039E07041F82230C21F02F047
:102130000F02DD1751F82220E2629146821C02F064
:102140000F02DA4651F82260F217F31A62EB050229
:10215000BD4D0026A3FB057C02FB05C203FB062246
:10216000530043EAD772031D03F00F03861E06F0E7
:102170000F0651F8235051F82670EB17ED1B63EB57
:10218000E77300E0B2E0B14E4FF00007A5FB06C8D0
:1021900003FB068305FB07334FEA430545EADC737F
:1021A00002EB030C00F1060202F00F02A0F104059D
:1021B00005F00F0551F8223051F825604FEAE3721F
:1021C0009B1BA34D62EBE672A3FB057802FB058225
:1021D0004FF0000603FB06224FEA420343EAD772A0
:1021E0000CEB0203A0F10802A0F1060002F00F02BE
:1021F00000F00F0051F8225051F820004FEAE5722C
:102200004FEAE071281A934D62EB0102A0FB0567CB
:1022100002FB0572002100FB0120410041EAD6705B
:1022200089FB092118444B0043EAD271206380FBEB
:102230000020430043EAD270084481493431FDF75D
:1022400071FF266B0EB3E06AF8B1FEF721F96FF06B
:102250001E073946FEF710F905463046FEF718F915
:102260003946FEF709F92946FFF7AAFDA06310F1E8
:10227000FF4F03D37849FEF737F8A0637649FEF79E
:10228000BDF87649FEF788F800E050460546A063A1
:10229000FEF707F9A189411A6161A08160690028F0
:1022A00004DA61694EF258600844606160694CF27A
:1022B0005036B0420ADD6069801BFEF7E9F8294616
:1022C000FEF767F8FEF706F9A08166616069E064D1
:1022D00001206070606B08B984F801A084F800A048
:1022E000002220215448FEF7FBFCF7E6042D7DD0A8
:1022F000052D7FF4C5AE20780128F7D101222021D9
:102300004D48FEF7EDFC4F49206CFEF745F80646B8
:10231000B4F90600FEF7BCF83146FDF7E5FFE063CF
:10232000216CE06BFEF732F8FEF7BBF8E16B21643D
:102330000305636422794149521C2271104602F060
:102340000F024039DFF818A141F8223083FB0A322E
:10235000560046EAD372431E03F00F03DFF80491E0
:1023600051F82360DFF800C186FB0936DB0F43EA32
:1023700046031344821E02F00F02DFF8F08051F88A
:10238000222082FB0C26D20F42EA46021344C21ED0
:1023900002F00F0251F8222082FB0826D20F42EAF7
:1023A00046029E18021F02F00F02314B51F8222004
:1023B00082FB0327D20F42EA47021644421F02F073
:1023C0000F022C4F51F8222082FB0727D20F42EA3E
:1023D00047021644821F02F00F0251F8222082FBAE
:1023E0000323D20F42EA4302324400E078E0C31FE5
:1023F00003F00F0351F8233083FB0836DB0F43EA69
:1024000046031344A0F1080202F00F0251F8222003
:1024100082FB0C26D20F42EA46021344C21D02F090
:102420000F0251F8226086FB0926D20F42EA4602CB
:102430001A44801D20E0000000080140F000002048
:1024400000000020A4707D3FD714C806D61A4A0B9E
:10245000A10BEA17C2BB5C50DB0FC94000586647AE
:1024600060B35CFFF6C14301D99C83FB7DE8820821
:10247000E0A128E4B610E41C00F00F0051F8201091
:1024800081FB0A10430043EAD1701044A064B4F900
:102490000E604FF0004206F5C07180FB0101C902D9
:1024A00041EA5051C0020023FDF7DDFEE064E16C1B
:1024B0004CF25030814203DDE064208A401C2082CF
:1024C000E16C9648814203DAE064208A401C208255
:1024D000208A00287DD0761EE681401E208212E1EF
:1024E00020780128FCD1012220218D48FEF7F8FB3D
:1024F0008C49606AFDF750FF0646B4F90600FDF707
:10250000C7FF3146FDF7F0FE2062616A206AFDF7E1
:102510003DFFFDF7C6FF216A61620205A262E07815
:10252000DFF80492401C00F00F03E07049F823200C
:10253000C11F01F00F0359F82310E1628A46811C84
:1025400001F00F0359F82360D317F117B21A61EBAA
:102550000301764B0026A2FB037C01FB03C102FBB7
:1025600006114A0042EAD771021D02F00F03861ECF
:1025700006F00F0759F8233059F82770DA17DB1BDC
:102580006B4E62EBE772A3FB06C802FB06824FF0BC
:10259000000703FB07224FEA420343EADC7201EB28
:1025A000020C00F10601A0F1040301F00F0203F098
:1025B0000F0659F8222059F826304FEAE2714FEA07
:1025C000E376D31A5B4A61EB0601A3FB027800268F
:1025D00000E08BE001FB028103FB06114A0042EAA6
:1025E000D7710CEB0107A0F10801801F01F00F0269
:1025F00000F00F0359F8222059F82300D117C31710
:10260000101A4D4A61EB0301A0FB026C01FB02C1F1
:10261000002300FB0310410041EAD6708AFB0A1236
:102620003844C90F41EA4201206380FB0002C00F19
:1026300040EA420008444149FDF774FD266B0EB3A1
:10264000E06AF8B1FDF724FF6FF01E084146FDF780
:1026500013FF07463046FDF71BFF4146FDF70CFF11
:102660003946FFF7ADFBA06310F1FF4F03D33449A8
:10267000FDF73AFEA0633249FDF7C0FE3149FDF790
:102680008BFE00E058460746A063FDF70AFFA189CC
:10269000411A6161A0816069002804DA61694EF223
:1026A00058600844606160694CF25036B0420ADDFF
:1026B0006069801BFDF7ECFE3946FDF76AFEFDF709
:1026C00009FFA08166616069E06401206070606B51
:1026D00008B984F801B0E06C4042E06484F800B0CE
:1026E000002220210E48FEF7FBFAFFE5E06C64288B
:1026F00009DD608A401C80B26082052803D9761CFF
:10270000E681A4F812B00120607084F800B00022C5
:1027100020210348FEF7E4FAEDE50000B03CFFFF9E
:1027200000080140A4707D3F70000020D714C80647
:10273000D61A4A0BA10BEA17C2BB5C50340000202A
:10274000DB0FC9400058664770B5002315460146A7
:102750001C4A1C461846FDF755FD0122AA4393006A
:10276000194A1370030E43EA01235370030C43EA22
:10277000014393700B0643EA1021D1701071134886
:10278000C16821F48071C160A2F150018C70C368EE
:1027900023F0FF03C360C4688B78D55C2C43C4600E
:1027A000C46844F40074C460C46824F40074C46051
:1027B0005B1CDBB28B70042BE9D9C16841F48071DA
:1027C000C16070BD807C814A500000200010014033
:1027D00000000000000000000102030406070809D1
:1027E000002800080000002070000000A01D000864
:1027F000702800087000002070050000B01D00085F
:1028000000000000000000000000000000000000C8
:1028100000000000000000000000000000000000B8
:1028200000000000000000000000000000000000A8
:102830000000000000000000000000000000000098
:102840000000000000000000000000000000000088
:102850000000000000000000000000000000000078
:1028600001000000100000000000000000A24A0467
:04000005080000ED02
:00000001FF
