:020000040800F2
:10000000B8050020010100088F1900082117000819
:100010008D1900085D050008B71C000800000000ED
:10002000000000000000000000000000B3190008FC
:100030005F05000800000000B1190008B5190008AC
:100040001B0100081B0100081B0100081B01000820
:100050001B0100081B0100081B0100081B01000810
:100060001B0100081B0100081B0100081B01000800
:100070001B0100081B0100081B0100081B010008F0
:100080001B0100081B010008950400081B01000863
:100090001B0100081B0100081B0100081B010008D0
:1000A0001B0100081B0100081B0100081B010008C0
:1000B0001B0100081B0100081B0100081B010008B0
:1000C0001B0100081B0100081B0100081B010008A0
:1000D0001B0100081B0100081B0100081B01000890
:1000E0001B0100081B0100081B010008DFF80CD0F1
:1000F00000F0BEF900480047391F0008B80500208D
:100100000648804706480047FEE7FEE7FEE7FEE7B1
:10011000FEE7FEE7FEE7FEE7FEE7FEE73D1A000822
:10012000ED0000082DE9F05F0546002092469B4651
:1001300088460646814640241BE0284641464746FD
:10014000224600F020F853465A46C01A914110D377
:1001500011461846224600F045F92D1A67EB0108B2
:100160004F4622460120002100F03CF917EB000920
:100170004E41201EA4F10104DFDC484631462A46E8
:100180004346BDE8F09F202A04DB203A21FA02F022
:100190000021704721FA02F3D040C2F120029140C1
:1001A000084319467047421E12F8013F002BFBD14D
:1001B00011F8013B02F8013B002BF9D17047421CBA
:1001C00010F8011B0029FBD1801A7047F0B480EAB7
:1001D0000102D40F4200B2EB410F02D202460846A0
:1001E00011464A0042D0C30DDDB2C1F3C752AD1A69
:1001F000202D35DAC1F3160141F4000204B1524258
:10020000C5F1200602FA06F12A411044B3EBD05F93
:1002100023D0C4B1012DA0EBC35009DCF0BC4FF0DA
:10022000004202EAC352DBB200F5000000F0F2B86F
:10023000400000F1807000EBC350A0F1807040EAF4
:10024000D170490009E0490841EAC071A0EBC350F0
:1002500000F50000400800EBC350F0BC00F0D1B83E
:100260006142012202EB4101001BF6E7F0BC70473E
:1002700081F00041AAE780F00040A7E780EA010290
:1002800010B502F00043400022D04A001FD0010EFA
:1002900001EB1261C0F35600C2F3560240F40000B5
:1002A00042F40002A0FB022000047F39140400D0B5
:1002B000401C50EA124001D44000491EC2B20C0654
:1002C00004EBD010401C4008802A02D003E000203C
:1002D00010BD20F00100002900DA0020184310BDF5
:1002E00030B480EA010202F0004530F0004221F013
:1002F000004013D090B1C30DD40DC2F31601C0F36A
:100300001600E41A41F4000140F400027D349142E9
:1003100001D3641C00E04900002C02DA30BC00204C
:1003200070474FF400000023914201D3891A034320
:1003300040084FEA4101F7D151B1914202D14FF04B
:10034000004105E002D24FF0010101E06FF0010130
:1003500003EBC450284430BC00F053B8420005D031
:10036000C0F3C7525242914201DC0020704700EBBB
:10037000C1507047C10F80EAE0700844CA07962355
:10038000002100F047B800F0004220F00040C10D0D
:10039000C0F3160040F400007F2901DA0020704706
:1003A000962903DCC1F19601C84001E096398840E6
:1003B000002AF4D04042704730B50B460146002079
:1003C0002022012409E021FA02F59D4205D303FA17
:1003D00002F5491B04FA02F52844151EA2F1010298
:1003E000F1DC30BD202A04DB203A00FA02F10020C3
:1003F00070479140C2F1200320FA03F31943904063
:1004000070470029A8BF7047401C490008BF20F072
:100410000100704710B4B0FA80FC00FA0CF050EA0A
:10042000010404BF10BC704749B1CCF1200421FA8B
:1004300004F411FA0CF118BF012121430843A3EB86
:100440000C01CB1D4FEA00614FEA102042BF002093
:1004500010BC704700EBC35010440029A4BF10BC6F
:100460007047401C490008BF20F0010010BC7047D5
:10047000064C074D06E0E06840F0010394E80700F1
:1004800098471034AC42F6D3FFF734FE44290008F5
:1004900064290008014800F016B90000C8000020D7
:1004A00070B5044600688168C943C9071CD18168DA
:1004B00021F00101816000F091FB05460FE000BFD3
:1004C00000F08CFB401B022809D9A06A40F0100004
:1004D000A062E06A40F00100E062012070BD206887
:1004E0008068C043C007EBD0002070BDF8B500267F
:1004F0000446009600688168C943C90728D081680E
:1005000041F001018160134813490068B0FBF1F02C
:1005100000E0401E00900028FBD100F05FFB054684
:1005200011E000BF00F05AFB401B02280BD9A06A63
:1005300040F01000A062E06A40F00100E06284F840
:1005400024600120F8BD20688068C043C007E9D15D
:100550000020F8BD8400002040420F00FEE77047F5
:1005600070470000F8B50024009490F82420254638
:10057000012A12D0012280F824204A681F23072A6A
:100580000DD20668776B521E02EB820293409F43A6
:100590000B6893401F43776319E00220F8BD06689B
:1005A0000D2A0AD2376BD21F02EB820293409F437F
:1005B0000B6893401F43376309E0F76A0D3A02EB7B
:1005C000820293409F430B6893401F43F7620A687F
:1005D000072306680A2A0AD3F7680A3A02EB42029E
:1005E00093409F438B6893401F43F76008E037694F
:1005F00002EB420293409F438B6893401F43376155
:100600000A68102A01D0112A20D1124B02689A429E
:1006100017D193681B0219D4936843F400039360C5
:100620000968102912D10C490C4A0968B1FBF2F192
:1006300001EB8101490000E0491E00910029FBD136
:1006400004E0816A41F020018162012480F8245095
:100650002046F8BD002401408400002040420F00E5
:1006600010B500F02DF81449A0F50060C880B1F96C
:100670000600002264280DDAB1F9060010F1640FBB
:1006800008DD4889B0F5487F02D0401C488102E06F
:10069000CA8000E04A8101200870B1F90800074AC9
:1006A000106088694A6E0B7910444A78BDE81040A2
:1006B000002102F04DB80000000000203408004086
:1006C0000068C06C704710B5044600684168890630
:1006D00026D50168890723D5A16AC90603D4A16A72
:1006E00041F40071A1628168C1F34241072910D130
:1006F000E16871B9416821F020014160A06A20F4ED
:100700008070A062A06AC00403D4A06A40F0010017
:10071000A0622046FFF7A4FF21686FF01200086076
:100720002068416809062ED5016849072BD5A16AC2
:10073000C90603D4A16A41F40051A1628168C1F3E2
:100740000231072909D04168490515D48168C1F3F0
:100750004241072910D1E16871B9416821F0800157
:100760004160A06A20F48050A062A06AC00503D452
:10077000A06A40F00100A0622046FFF7F1FE216868
:100780006FF00C0008602068416849060DD50068CC
:10079000C0070AD0A06A40F48030A062204600F072
:1007A00093F821686FF00100086010BD2DE9F04159
:1007B0004FF0000704003D467ED0A06A002628B90D
:1007C000E66284F82460204600F080F82046FFF7B7
:1007D00067FEA16AC90600D420B1A06A40F01000EB
:1007E000A06269E0A16A21F4885141F00201A1628E
:1007F0006268E169E3680A4347EA43010A43A16882
:100800004FF48077B94209D0012907D05FF0000189
:10081000D4F814C0BCF1010F02D00AE03946F7E762
:10082000F3B1A36A43F02003A362E36A43F0010338
:10083000E3622368D3F804C02CF4694C4CEA010C41
:10084000C3F804C021688B68DFF870C003EA0C03AA
:1008500013438B60A168B9420BD0012909D00CE089
:10086000DFF85CC0A3690CEB43330B4343F4006136
:10087000DFE7218A0D05A5F580152168CB6A23F4F1
:1008800070032B43CB62216889680E4B194091425B
:1008900008D1E662A16A21F0020141F00101A162E2
:1008A000BDE8F081A06A20F0020040F01000A062D4
:1008B000E06A40F00100E0620120F1E7FDF7E1FFAE
:1008C00000E0FFFFFE0E1FFF7047000000B500684C
:1008D0000F4985B0884218D10E48816941F40071F2
:1008E00081618069694600F40070049001200090E5
:1008F00003200190084800F089F8002211461220D8
:1009000000F000FA122000F0F1F905B000BD00007F
:1009100000240140001002400008014070B5044668
:1009200090F8240001280DD0012084F824002046EE
:10093000FFF7DCFD02004FF0000005D084F8240032
:10094000104670BD022070BDA16A40F60163994354
:1009500041F48071A162224D23682249AB4218D133
:100960000E6816F4702F14D0A66A46F48016A6629C
:100970000E68760505D5A66A26F4005646F480561C
:10098000A662A66AF6040AD5E66A26F00606E662BC
:1009900006E0A66A26F48016A6625E68E9E7E062D1
:1009A00084F824006FF0020018602068436843F068
:1009B0002003436020688368C3F34243072B05D1BB
:1009C000A84208D1096811F4702F04D0816841F45D
:1009D00080118160B4E7816841F4A001F9E700006B
:1009E000002801400424014070B5044600F0F6F8E8
:1009F0000546601C02D004480078044400F0EEF87C
:100A0000401BA042FAD370BD780000202DE9F84FBA
:100A1000DFF890A100220AF1040B144601274FF0E1
:100A20000F090BF1040E00BF0B6807FA04F52B4009
:100A3000AB4274D1DFF870C14E68A6EB0C08664576
:100A40002BD00DDC032E34D005DC36B3012E19D0AB
:100A5000022E2FD11BE0112E16D0122E2AD119E012
:100A6000B8F5881F19D006DCB8F5803F15D0B8F569
:100A7000801F1FD111E0B8F5001F0ED0B8F5041F7C
:100A800018D10AE0CA6815E0CA68121D12E0CA68E7
:100A900008320FE0CA680C320CE08A682AB1012AD9
:100AA0004FF0080203D0456104E0042202E0056132
:100AB00000E00022FF2B01D8064601E000F1040609
:100AC0004FEA840501D9A5F12005D6F800C009FA3E
:100AD00005F82CEA080C02FA05F54CEA050CC6F8F4
:100AE00000C04D68ED0057D5304DAE6946F00106A7
:100AF000AE61AD6924F0030605F0010500952C4DAB
:100B000006EB050CDCF80850A6074FEA167809FA40
:100B100008F6B543274EB04202D1002610E03BE074
:100B2000254EB04201D101260AE0244EB04201D147
:100B3000022605E0224EB04201D1032600E0042641
:100B400006FA08F62E43CCF808604D68DAF8006023
:100B5000ED03554601D51E4300E09E432E604D68CF
:100B6000DBF80060AD035D4601D51E4300E09E4307
:100B70002E604D68DEF80060ED02754601D51E431B
:100B800000E09E432E604D68AD020E4D2E6801D5EB
:100B90001E4300E09E432E60641C102CFFF444AF03
:100BA000BDE8F88F00040140000011100010024061
:100BB0000000014000080140000C0140001001400D
:100BC000001401400C0401408068084000D001205E
:100BD00070470AB1016170470904FBE7014880686A
:100BE00070470000780000200248816802781144B4
:100BF0008160704778000020074810B5016841F017
:100C000010010160032000F09DF8002000F006F8BC
:100C100000F024F8002010BD0020024070B50D4DFA
:100C200004464FF47A712878B1FBF0F00A4909685C
:100C3000B1FBF0F000F087FB48B9102C07D200227E
:100C40002146501E00F05EF800206C6070BD01204F
:100C500070BD00007800002084000020214808B505
:100C6000816941F001018161816901F00101009117
:100C7000C16941F08051C161C06900F080500090AD
:100C8000032000F05FF8002211466FF00B0000F027
:100C900039F8002211466FF00A0000F033F8002204
:100CA00011466FF0090000F02DF800221146501F88
:100CB00000F028F800221146101F00F023F800224F
:100CC0001146901E00F01EF800221146501E00F042
:100CD00019F80548416821F0E06141F08061416008
:100CE00008BD0000001002400000014000F01F029B
:100CF000012191404009800000F1E020C0F800117E
:100D000070470000F0B40E4B1B680C46C3F302237F
:100D1000C3F10705042D00D90425191D072901D2A7
:100D2000002300E0DB1E012606FA05F1491E2140E2
:100D300099409E40761E16403143F0BC00F028BE1C
:100D40000CED00E0064900F0070208684FF6FF03CB
:100D5000184040EA0220034A104308607047000030
:100D60000CED00E00000FA052DE9F8430546007897
:100D7000354CC00754D0E0690026C00008D4E069B3
:100D800040F08050E061E069012600F08050009062
:100D90002E480168C90512D40168804641F480716B
:100DA0000160FFF71BFF074605E000BFFFF716FFD6
:100DB000C01B642823D8D8F80000C005F6D5206AE7
:100DC00010F4407021D0A98801F4407181421CD0F8
:100DD000206A1F49012220F440700A6000220A6044
:100DE0002062C00711D0FFF7F9FE074641F28838AC
:100DF00008E000BFFFF7F2FEC11B414502D9032006
:100E0000BDE8F883206A8007F4D5206A696820F479
:100E10004070084320621EB1E06920F08050E0611C
:100E20002878800705D56068A96820F44040084309
:100E300060602878C00605D56068E96820F4800005
:100E4000084360600020DBE70010024000700040B3
:100E5000400442422DE9F047DFF83C8105460E464A
:100E6000D8F8000000F00700B0420CD2D8F800100B
:100E700021F007013143C8F80010D8F8000000F055
:100E80000700B04263D12878444C800705D56068DC
:100E9000A96820F0F000084360602878C00745D0BA
:100EA0006868012816D02168022816D08907002911
:100EB0004DDA616821F0030101436160FFF78EFEA6
:100EC0006968074641F2883001290FD0022981461E
:100ED00019D027E021688903E9E78901E7E700BF26
:100EE000FFF77CFEC11B494501D918E081466068C7
:100EF000C0F381000128F3D118E000BFFFF76EFEB8
:100F0000C11B49450BD86068C0F381000228F5D1A8
:100F10000CE000BFFFF762FEC11B494502D9032068
:100F2000BDE8F087606810F00C0FF3D1D8F800101E
:100F3000404601F00701B1420BD9016821F00701D9
:100F400031430160006800F00700B04201D0012089
:100F5000E6E72878400705D56068E96820F4E06096
:100F6000084360602878000706D56068296920F486
:100F7000605040EAC100606000F01CF86168084AF7
:100F8000C1F30311515CC840064908600020FFF717
:100F900045FE0020C4E7000000200240001002408F
:100FA00034290008840000200148006870470000D0
:100FB0008400002013A185B00FC98DE80F0015A093
:100FC000154A00680490516801F00C00042804D010
:100FD000082804D0114805B070471148FBE7C1F359
:100FE0008343C9031DF8030009D5516804AAC1F35E
:100FF0004041515C0A4A5043B0FBF1F0EBE709492C
:101000004843E8E702030405060708090A0B0C0D2C
:101010000E0F1010010200000010024000127A00B2
:10102000001BB70000093D002DE9F84F0446007889
:10103000B94DC00748D06868C0F38100012807D0C7
:101040006868C0F38100022809D16868C00306D52A
:101050002868800338D5606800286FD034E0606865
:10106000B0F5803F0BD010B1B0F5A02F11D028689B
:1010700020F480302860286820F4802002E028686E
:1010800040F480302860606888B1FFF7A7FD06460D
:1010900009E0286840F480202860F0E7FFF79EFD13
:1010A000801B642875D828688003F7D50CE0FFF70B
:1010B00095FD064605E000BFFFF790FD801B642804
:1010C000F0D828688003F7D42078944E80074FF03A
:1010D00001094FF000083BD5686810F00C0F07D0ED
:1010E0006868C0F38100022809D16868C00306D48B
:1010F0002868800714D5206901281FD110E02069D5
:10110000B0B1C6F80090FFF769FD074605E000BFE3
:10111000FFF764FDC01B0228C4D828688007F7D5F4
:101120002868616920F0F80040EAC10028600FE0FB
:10113000C6F80080FFF752FD074606E0E9E000BF71
:10114000FFF74CFDC01B022823D828688007F7D47E
:10115000207800072CD57248A169D9B1C0F8009059
:10116000FFF73CFD074604E0FFF738FDC01B0228EF
:101170000FD8686A8007F7D56A484FF4FA510068BB
:10118000B0FBF1F0009000BF0098411E0091FAD230
:101190000EE080E0C0F80080FFF720FD074604E085
:1011A000FFF71CFDC01B022875D8686A8007F7D4BA
:1011B0002078400760D5E8690027C00008D4E869B6
:1011C00040F08050E861E869012700F0805000900D
:1011D00055480168C90513D40168834641F48071FC
:1011E0000160FFF7FBFC824606E000BFFFF7F6FC5C
:1011F000A0EB0A0064284ED8DBF80000C005F5D546
:10120000E06801280AD008B1052813D0286A20F028
:1012100001002862286A20F0040002E0286A40F0F9
:1012200001002862E06841F2883B98B1FFF7D6FCE4
:1012300082460BE0286A40F004002862EEE700BF17
:10124000FFF7CCFCA0EB0A0159455AD8286A800761
:10125000F6D50CE0FFF7C2FC824605E0FFF7BEFCC6
:10126000A0EB0A0159454CD8286A8007F6D41FB173
:10127000E86920F08050E861E06988B36968C1F3EB
:101280008101022945D00228C6F8608004D0FFF70A
:10129000A5FC044638E034E0FFF7A0FC074604E074
:1012A000FFF79CFCC01B02282BD828688001F7D4CC
:1012B000206AB0F5803F05D16868A16820F400304D
:1012C00008436860D4E908010843696821F474118F
:1012D00008436860C6F86090FFF780FC044606E0AB
:1012E00015E000BFFFF77AFC001B022809D8286828
:1012F0008001F7D50BE000BFFFF770FC001B022850
:1013000002D90320BDE8F88F28688001F4D40020BA
:10131000F8E70120F6E7000000100240000042421A
:101320008004424284000020007000404FF0E02121
:101330000428086903D020F004000861704740F0D9
:101340000400FAE7704710B5401EB0F1807F01D36A
:10135000012010BD4FF0E02460610F21601700F004
:1013600017FB0020A06107202061002010BD10B5F0
:10137000FFF7E8FF10BD30B590F83C20012A20D0DF
:10138000012280F83C20022380F83D3003685C682D
:1013900024F070045C6003685C680D682C435C603A
:1013A00003689C6824F080049C6003689C6849681A
:1013B0000C439C6080F83D20002180F83C100846DA
:1013C00030BD022030BD10B5040003D094F83D00BC
:1013D00010B107E0012010BD002084F83C00204639
:1013E00000F00CF8022084F83D00211D206800F078
:1013F00049FB012084F83D00002010BD08B50168BC
:101400001148B1F1804F0BD0104A914210D1C169FF
:1014100041F00201C161C06900F00200009008BD06
:10142000C16941F00101C161C06900F00100F5E747
:10143000074A9142F3D1C16941F00401C161C06919
:1014400000F00400EAE70000001002400004004041
:1014500000080040022180F83D1001680A6842F04F
:1014600001020A60012180F83D100020704702212E
:1014700080F83D1001680A6A41F211131A4207D13F
:101480000A6A9B101A4203D10A6822F001020A601C
:10149000012180F83D100020704770B5044690F897
:1014A0003C00012817D0012584F83C50022084F824
:1014B0003D002068826822F0770222F47F42826039
:1014C0000868502837D00DDC202859D005DC88B3B7
:1014D000102841D151E0022070BD302853D040285F
:1014E0003AD13FE060282ED070280BD0B0F5805F55
:1014F00003D0B0F5005F2FD110E02068816821F0A3
:10150000070115E0CB68D1E90121206800F0FBFA62
:101510002168886840F0770088601DE0CB68D1E9D9
:101520000121206800F0EFFA2068816841F48041D1
:10153000816011E01EE0CA684968206800F098FBED
:101540005021206806E0CA684968206800F0A1FBC5
:101550006021206800F0E1FA84F83D50002084F812
:101560003C0070BDCA684968206800F081FB4021DA
:101570002068EFE700212068ECE710212068E9E708
:1015800020212068E6E730212068E3E71FB50168E5
:101590000220B1F1804F0BD00F4A914207D1402178
:1015A000CDE90010039069460C48FFF72FFA1FBDE4
:1015B0004FF40041CDE90010039069460848FFF759
:1015C00025FA0848416821F4407141F0E06141F496
:1015D000807141601FBD000000080040000C014008
:1015E000000801400000014070B5044690F83C003E
:1015F0000D4601280DD0012684F83C60022084F8B5
:101600003D0042B1042A18D0082A2AD00C2A4DD114
:1016100039E0022070BD206800F088FA20688169F6
:1016200041F0080181612068816921F00401816134
:10163000206881692A69114311E0206800F09EFA50
:101640002068816941F4006181612068816921F429
:1016500080618161206881692A6941EA0221816192
:1016600024E0206800F0B6FA2068C16941F0080162
:10167000C1612068C16921F00401C1612068C169AC
:101680002A69114311E0206800F0D0FA2068C1698E
:1016900041F40061C1612068C16921F48061C161C8
:1016A0002068C1692A6941EA0221C16184F83D606C
:1016B000002084F83C0070BD10B5040003D094F8FD
:1016C0003D0010B107E0012010BD002084F83C006F
:1016D000204600F00CF8022084F83D00211D20680F
:1016E00000F0D0F9012084F83D00002010BD7047C3
:1016F00010B504460068012200F0FAF90749206895
:10170000884203D1416C41F4004141642068016882
:1017100041F001010160002010BD0000002C0140DB
:10172000FEE700003EB50F4800240D498460C46008
:1017300044610160012505614FF400214460C161ED
:10174000FFF734F800B1FEE7CDE9004569460548EA
:101750000294FEF707FF002800D0FEE73EBD000020
:1017600000240140C80000202DE9F04F324885B028
:10177000816941F020018161816901F020010491BA
:10178000816941F010018161816901F010010491CA
:10179000816941F004018161816901F004010491D2
:1017A000816941F0080181618069DFF8909000F063
:1017B000080040F2FF340490002221464846FFF71B
:1017C00008FADFF87CA04FF408770022394650462B
:1017D000FFF7FFF9DFF86CB04FF6A0780022414622
:1017E0005846FFF7F6F90125CDE900450024032608
:1017F000CDE9024669464846FFF708F90097039687
:10180000CDE9015469465046FFF700F9CDF8008054
:101810000396CDE9015469465846FFF7F7F81020C2
:10182000CDE900040220029069465846FFF7EEF821
:1018300005B0BDE8F08F000000100240001001402C
:1018400000080140000C014010B51C488EB04FF05C
:1018500080410024C0E9001441F6FE71C0E9024154
:1018600004618461FFF7AFFD00B1FEE74FF48050E3
:10187000079007A91148FFF710FE00B1FEE70F48D7
:10188000FFF71AFF00B1FEE70B940BA90B480C946D
:10189000FFF771FD00B1FEE76020CDE9000402947E
:1018A0000022694605480494FFF79EFE00B1FEE75A
:1018B0000248FFF76BFE0EB010BD0000F8000020DC
:1018C00010B5134886B011490024C0E9001441F650
:1018D000FE71C0E9024104618461FFF774FD00B14B
:1018E000FEE74FF48050009069460948FFF7D5FDA8
:1018F00000B1FEE72020CDE9040404A90448FFF765
:101900003AFD002800D0FEE706B010BD00040040FC
:101910003801002010B51C488EB01A490024C0E9D7
:10192000001440F6FF71C0E9024104618461FFF7D1
:101930004AFD00B1FEE74FF48050079007A9124816
:10194000FFF7ABFD00B1FEE70F48FFF7B5FE00B1B2
:10195000FEE70B940BA90C480C94FFF70CFD00B1AB
:10196000FEE76020CDE900040294002269460648A3
:101970000494FFF739FE00B1FEE70348FFF706FEC7
:101980000EB010BD0008004078010020FEE770474F
:101990000907090E002806DA00F00F0000F1E02028
:1019A00080F8141D704700F1E02080F800147047A3
:1019B0007047704710B5FFF717F9BDE81040FFF703
:1019C000D6BC30B593B001210804CDE90010002544
:1019D000029502240491CDE9074000010990684670
:1019E000FFF722FB00B1FEE70AA90F2081E83100D2
:1019F0004FF48060CDE90D0502210AA8FFF72AFA0D
:101A000000B1FEE74FF4004011900F940FA8FFF7CC
:101A1000ABF900B1FEE7FFF7C7FA4FF47A71B0FBFC
:101A2000F1F0FFF790FC0420FFF780FC0022114644
:101A3000501EFFF767F913B030BD00000D48016874
:101A400041F00101016041680B4A114041600168A9
:101A50000A4A11400160016821F480210160416857
:101A600021F4FE0141604FF41F0181600449C0036D
:101A700008607047001002400000FFF8FFFFF6FE0C
:101A800008ED00E0F0B50268164B174C174D4FF00B
:101A90008047984205D0B84203D0A04201D0A84266
:101AA00003D122F070064A683243984205D0B8420A
:101AB00003D0A04201D0A84203D122F44074CA68E6
:101AC000224322F080044A69224302608A68C2628B
:101AD0000A688262984201D109690163012141616A
:101AE000F0BD0000002C0140000400400008004050
:101AF00010B50123046A8B409C430462036A8A4048
:101B00001343036210BD10B5846842EA032224F433
:101B10007F440A432243826010BD826822F0700233
:101B20000A4342F0070181607047000030B5026A45
:101B300022F001020262026A4368846924F073059C
:101B40000C682C4322F002058A682A430A4DA842F9
:101B50000BD122F00805CA6823F440732A434D696B
:101B600022F004021D438B692B4343608461496862
:101B70004163026230BD0000002C014030B5026AB2
:101B800022F010020262026A436884690D6824F43C
:101B9000E64444EA05248D6822F0200242EA051258
:101BA0000B4DA8420ED1CD6822F0800242EA051208
:101BB0004D6923F4406343EA85038D6922F04002B6
:101BC00043EA85034360846149688163026230BDF2
:101BD000002C014030B5026A22F480720262036A6E
:101BE0004268C46923F4007324F073050C682C4325
:101BF0008D6843EA05230C4DA8420ED1CD6823F42D
:101C0000006343EA05234D6922F4405242EA05127B
:101C10008D6923F4806342EA05124260C461496819
:101C2000C163036230BD0000002C014030B5026A80
:101C300022F480520262046A4268C3690D6823F488
:101C4000E64343EA05238D6824F4005444EA05344E
:101C5000064DA84204D14D6922F4804242EA851221
:101C60004260C36149680164046230BD002C0140D8
:101C700010B5036A046A24F001040462846924F044
:101C8000F00444EA021423F00A020A438461026267
:101C900010BD10B5036A23F0100303628369046A60
:101CA00023F4704343EA023224F0A00343EA011113
:101CB0008261016210BDFEE70FB4084B10B504A9A4
:101CC00002AA039800F01CF8044602A9002000F0C4
:101CD000C1F8204610BC5DF814FB0000551E00083A
:101CE00002E008C8121F08C1002AFAD170477047E5
:101CF000002001E001C1121F002AFBD17047000043
:101D00002DE9FF4F89B09B460446002506E02528B3
:101D10000BD05A460B999047641C6D1C2078002804
:101D2000F5D10DB02846BDE8F08F0027B846012256
:101D3000474900E0074314F8013F203B02FA03F053
:101D40000842F7D120782E2819D114F8010F47F056
:101D500004072A280ED06FF02F022078A0F130015E
:101D600009290CD808EB880102EB410100EB0108BE
:101D7000641CF2E70A98641C50F8048B0A902078DF
:101D80000028CED0642808D0692806D075281ED037
:101D90005A460B9990476D1C58E00A994FF00A0972
:101DA00001C90A91002802DA40422D2102E03905DA
:101DB00004D52B218DF82010012103E0F90704D070
:101DC0002021F7E78A4608AE0DE00021FAE70A99DC
:101DD0004FF00A0901C90A91F7E74946FEF7ECFA04
:101DE000303106F8011D0028F7D1ADEB060000F1F7
:101DF0002009780701D44FF00108C84502DDA8EB9F
:101E0000090000E000208046002706E008A85A46A6
:101E1000C05D0B9990476D1C7F1C5745F6DB04E0B5
:101E200030205A460B9990476D1CB8F10001A8F17B
:101E30000108F5DC05E016F8010B5A460B999047AE
:101E40006D1CB9F10001A9F10109F4DC641C65E71E
:101E5000092801000A68531C0B601070704710B508
:101E60000F20FEF7C1FD0021302000F02DF80520E5
:101E7000FEF7BAFD0021302000F026F80120FEF721
:101E8000B3FD0021302000F01FF80021062000F0F3
:101E90001BF80120FEF7A8FD00210C2000F014F82B
:101EA0000520FEF7A1FD0021142000F00DF805200B
:101EB000FEF79AFD0021382000F006F8BDE810403A
:101EC0000520FEF791BD00000F4A136803F05F0381
:101ED0001360136843EAC1111160116841F02001D9
:101EE0001160116841EA002010600020401CC0B25F
:101EF000FF28FBD3106820F0200010600020401C59
:101F0000C0B2FF28FBD370470C0C014070B5002411
:101F100000290546214604D05FF0C000FFF7D4FF3A
:101F200006E08020FAE70121FFF7CEFF641CE4B24F
:101F3000285D0028F7D170BD88B005260025FEF782
:101F40005BFEFFF73EFDFFF70FFCFFF7B9FCFFF765
:101F5000E1FCFFF7E7FBFFF777FC0122FF4F54029C
:101F600021463846FEF735FE0120FEF73DFD0022F2
:101F700021463846FEF72DFEFFF771FFF848FEF7C1
:101F8000CDFCF7487030FFF765FAF5480021B03016
:101F9000FFF7AEFBF24800213030FFF7A9FBDFF876
:101FA000C4A34FF000094FF0010B1021EE48FEF7DB
:101FB0000BFE040001D0F5B12BE0012D0FD1E84854
:101FC0007030FFF754FA00231A461846194600F0FD
:101FD000BFFB204600F002FCC820FEF705FD2546A9
:101FE0000120FEF701FD31460A2000F055FC204695
:101FF00000F0F4FBD9E7C820FEF7F6FC204600F01D
:10200000EDFB3146002000F047FCD5487030FFF76B
:1020100021FA2546012E45D0032E67D0042E7DD00F
:10202000052EC2D19AF8000054460128BDD10122E4
:1020300020213846FEF7CDFDB4F90600C0EB005074
:1020400082126265C948E16D81FB0003C00F40EA5E
:1020500043001044411AA065C4E917018802C4492D
:1020600090FBF1F12165B4F90C0000F1320251430B
:102070006166626E4CF250318A4203DD6166E1892D
:10208000491CE181626EBB498A4203DA6166E189DB
:10209000491CE181E18900297DD0401EA081491EB3
:1020A000E18137E39AF8000054460128A2D10122C9
:1020B00020213846FEF78DFDAF49206AFEF7DEF895
:1020C0008046B4F90600C010FEF754F94146FEF709
:1020D0007DF8E061216AE069FEF7CAF8FEF753F97E
:1020E00000F500602081E069206215E39AF80000A5
:1020F0005446012895D1012220213846FEF769FD7A
:10210000B4F90600A2462346C0EB005081122164B8
:102110009A48A26C82FB0004C00F00E07EE140EA16
:1021200044000844811A5864CC019C629864D878B1
:102130008B4A401C00F00F01403AD87042F8214011
:10214000C11F01F00F0152F82110D9628846811C8D
:1021500001F00F0152F821100C1B894984FB01C1C9
:102160004C0044EADC71041DA0F1020C04F00F04E1
:102170000CF00F0C52F8244052F82CC0A4EB0C0CBD
:10218000804C8CFB044CE40F44EA4C042144841D35
:1021900004F00F0400E0AFE2A0F1040C0CF00F0C0F
:1021A00052F8244052F82CC0A4EB0C0C764C8CFB5B
:1021B000044CE40F44EA4C042144A0F10804801FBD
:1021C00004F00F0400F00F0052F8244052F82000F1
:1021D0006E4A201A80FB0220440044EAD270084470
:1021E00088FB0812C90F41EA42016FF0404281FBAF
:1021F0000214C90F41EA440180FB004CE40F44EA99
:102200004C0484FB02424FEA420C4CEAD472114463
:102210001863CAF8341004915FEA080108D1002855
:1022200002DD6FF0404001E002DA5948D864CAE0AC
:1022300041460790002800DA4042002900DA49426E
:102240008842404643DD002800DA4042019007986A
:10225000002800DA4042FEF78DF86FF01E01FEF70D
:102260007DF804460198FEF785F86FF01E01FEF731
:1022700075F81F21FEF772F82146FEF731F8FEF7D8
:1022800082F8444980FB0112C90F41EA420100284B
:1022900001DA424200E002466FF000439A1A81FBE5
:1022A00002214B0043EAD2713B4A80FB0202C00F7D
:1022B00040EA42000144394881FB0001C00F40EA76
:1022C00041006FF04041091ACAF8241044E040B3BD
:1022D0000798002800DA404201905FEA080000D524
:1022E0004042FEF747F86FF01E01FEF737F804464C
:1022F0000198FEF73FF86FF01E01FEF72FF81F213F
:10230000FEF72CF82146FDF7EBFFFEF73CF82149DC
:1023100080FB01214B0043EAD271002804DA4242DB
:1023200003E0CAF8249044E002466FF000439A1A92
:1023300081FB0212C90F41EA4201174A80FB0202E7
:10234000C00F40EA42000144144881FB0001C00F65
:1023500040EA4100CAF8240022E0000000080140E1
:10236000C800002000000020000C014066666626C0
:10237000FFFF0F00B03CFFFFA4707D3FEA51B87E25
:10238000D714C806D61A4A0BA10BEA17C2BB5C5079
:10239000010000C047E17A2480ED8764C060BE2858
:1023A000B8F1000F05DADAF824006FF00041081ADE
:1023B00001E0DAF82400CAF82400079A002A00DABB
:1023C0004042CAF84C00DAF84C1050464910CAF89E
:1023D0004C1003D56FF000421144C16409144EF251
:1023E00058625143C9138163C26B8A1A4261C16347
:1023F0004169002904DA42694EF258611144416191
:102400004169416680F801B00499142901DA80F825
:10241000019080F8049080F800907FE19AF8000025
:10242000544601287FF4E6AD012220213846FEF70C
:10243000D0FBB4F90600A2462346C0EB005082123E
:102440002264B948A16C81FB0004C00F40EA44003B
:102450001044411A58644FEAC11CC3F828C098645C
:10246000D978B24C491CD970084601F00F0144F8E4
:1024700021C0C11F01F00F0154F82120811C01F07F
:102480000F01DA6254F82110A1EB0C0CA8498CFB67
:1024900001C14FEADC7C4CEA410C011D01F00F0147
:1024A00054F82180811E01F00F0154F82110A8EB8F
:1024B0000108A04988FB0118C90F41EA48018C4472
:1024C000811D01F00F0154F82180011F01F00F015F
:1024D00054F82110A8EB0108974988FB0118C90F8F
:1024E00041EA48018C44A0F10801801F01F00F016E
:1024F00000F00F0054F8218054F82000A8EB0001F0
:102500008E486FF0404881FB0001C00F40EA410057
:1025100082FB0214C90F41EA440181FB08146044A4
:10252000C90F41EA440180FB004CE40F44EA4C042B
:1025300084FB084CE40F44EA4C0421441863CAF8B5
:102540003410049142B9002802DDC3F84C80A9E0A0
:1025500002DA7B48D864A5E003920790002800DAED
:102560004042002A00DA52429042039842DD00289D
:1025700000DA404201900798002800DA4042FDF757
:10258000F9FE6FF01E01FDF7E9FE04460198FDF724
:10259000F1FE6FF01E01FDF7E1FE1F21FDF7DEFEEB
:1025A0002146FDF79DFEFDF7EEFE664980FB012109
:1025B0004B0043EAD271002801DA424200E00246B1
:1025C0006FF000439A1A81FB02214B0043EAD2715B
:1025D0005D4A80FB0220430043EAD27001445B481D
:1025E00081FB0001C00F40EA4100A8EB0001CAF8DE
:1025F000241044E040B30798002800DA40428046A7
:102600000398002800DA4042FDF7B4FE6FF01E0187
:10261000FDF7A4FE04464046FDF7ACFE6FF01E0138
:10262000FDF79CFE1F21FDF799FE2146FDF758FEA0
:10263000FDF7A9FE434980FB0112C90F41EA42019F
:10264000002804DA424203E0CAF8249020E002465F
:102650006FF000439A1A81FB0212C90F41EA42014E
:10266000394A80FB0202C00F40EA42000144374869
:1026700081FB0001C00F40EA4100CAF82400039822
:10268000002805DADAF824006FF00041091A01E0A9
:10269000DAF82410CAF82410079A002A00DA49420E
:1026A000CAF84C10DAF84C1050464910CAF84C10D1
:1026B00003D56FF000421144C16409144EF2586210
:1026C0005143C9138163C26B8A1A4261C163416974
:1026D000002904DA42694EF25861114441614169AE
:1026E000416680F801B00499142901DA80F801905C
:1026F000416E494241668CE6616EB1F57A7F09DD33
:10270000218A491C89B22182052903D9401CA08154
:10271000A4F8109084F801B084F8009000222021E1
:102720003846FEF756FA40E4EA51B87E88000020A9
:10273000D714C806D61A4A0BA10BEA17C2BB5C50C5
:10274000010000C047E17A2480ED8764C060BE28A4
:1027500070B51C460023164601461D4A1D46184604
:10276000FDF7E0FCF24364F35F029300194A137033
:10277000030E43EA01235370030C43EA01439370B1
:102780000B0643EA1021D17010711348C16821F47F
:102790008071C160A2F168018D70C36823F0FF03EE
:1027A000C360C4688B78D55C2C43C460C46844F4AF
:1027B0000074C460C46824F40074C4605B1CDBB2A1
:1027C0008B70042BE9D9C16841F48071C16070BD80
:1027D000807C814A680000200010014070B50646E8
:1027E0002B488AB082692BA16846FFF765FA6846D4
:1027F000FDF7E5FCC1B2002005AC3022C1F10801B3
:1028000002E02254401CC0B28142FADA002525546D
:1028100069462046FDF7C7FC00216A46605C5054BB
:10282000491CC9B20129F9D92E218DF802100320C3
:10283000231813F8013C1354401CC0B20528F7D9E3
:102840008DF806100720211811F8021C1154401CA5
:10285000C0B20928F7D92C208DF80A009DF81C0079
:102860008DF80B0048208DF80C007A208DF80D00B3
:1028700020208DF80E00012E00D121208DF80F00B0
:102880008DF8105000211046FFF740FB0AB070BDD4
:10289000000000202564000030B50C4687B05321AD
:1028A0008DF8001001233E2569462022834201D87D
:1028B000CD5400E0CA545B1CDBB2092BF6D90025CD
:1028C0008DF80A500A2809D2024613A105A8FFF77D
:1028D000F3F905A96846FDF766FC05E039208DF897
:1028E0000A002B208DF80B008DF80C50052C04D01D
:1028F000032C04D0042C04D007E008A102E009A1B5
:1029000000E00AA16846FDF74EFC01216846FFF78A
:10291000FDFA07B030BD000025642000204E464D72
:10292000000000002055534200000000204C53429C
:10293000000000000000000000000000010203048D
:10294000060708096429000800000020880000002C
:10295000E01C0008EC290008880000203005000079
:10296000F01C000800000000000000000000000053
:10297000000000000000000000000000B06B291003
:102980000000000000000000000000000000000047
:102990000000000000000000000000000000000037
:1029A0000000000000000000000000000000000027
:1029B0000000000000000000000000000000000017
:1029C0000000000000000000000000000000000007
:1029D00000000000000000000000000001000000F6
:0C29E000100000000000000000A24A04EB
:04000005080000ED02
:00000001FF
